{
  "_format": "hh3-artifact-1",
  "contractName": "CertificateRegistry",
  "sourceName": "contracts/CertificateRegistry.sol",
  "abi": [
    {
      "inputs": [],
      "stateMutability": "nonpayable",
      "type": "constructor"
    },
    {
      "anonymous": false,
      "inputs": [
        {
          "indexed": true,
          "internalType": "bytes32",
          "name": "certHash",
          "type": "bytes32"
        },
        {
          "indexed": false,
          "internalType": "string",
          "name": "candidateId",
          "type": "string"
        },
        {
          "indexed": false,
          "internalType": "uint256",
          "name": "timestamp",
          "type": "uint256"
        }
      ],
      "name": "CertificateRegistered",
      "type": "event"
    },
    {
      "inputs": [
        {
          "internalType": "bytes32",
          "name": "certHash",
          "type": "bytes32"
        }
      ],
      "name": "getCertificateInfo",
      "outputs": [
        {
          "internalType": "bool",
          "name": "verified",
          "type": "bool"
        },
        {
          "internalType": "string",
          "name": "candidateId",
          "type": "string"
        },
        {
          "internalType": "uint256",
          "name": "timestamp",
          "type": "uint256"
        }
      ],
      "stateMutability": "view",
      "type": "function"
    },
    {
      "inputs": [
        {
          "internalType": "bytes32",
          "name": "certHash",
          "type": "bytes32"
        }
      ],
      "name": "isCertificateVerified",
      "outputs": [
        {
          "internalType": "bool",
          "name": "",
          "type": "bool"
        }
      ],
      "stateMutability": "view",
      "type": "function"
    },
    {
      "inputs": [],
      "name": "owner",
      "outputs": [
        {
          "internalType": "address",
          "name": "",
          "type": "address"
        }
      ],
      "stateMutability": "view",
      "type": "function"
    },
    {
      "inputs": [
        {
          "internalType": "bytes32",
          "name": "certHash",
          "type": "bytes32"
        },
        {
          "internalType": "string",
          "name": "candidateId",
          "type": "string"
        }
      ],
      "name": "registerCertificate",
      "outputs": [],
      "stateMutability": "nonpayable",
      "type": "function"
    },
    {
      "inputs": [],
      "name": "totalCertificates",
      "outputs": [
        {
          "internalType": "uint256",
          "name": "",
          "type": "uint256"
        }
      ],
      "stateMutability": "view",
      "type": "function"
    },
    {
      "inputs": [
        {
          "internalType": "address",
          "name": "newOwner",
          "type": "address"
        }
      ],
      "name": "transferOwnership",
      "outputs": [],
      "stateMutability": "nonpayable",
      "type": "function"
    }
  ],
  "bytecode": "0x6080604052348015600e575f5ffd5b505f80546001600160a01b031916331790556106f28061002d5f395ff3fe608060405234801561000f575f5ffd5b5060043610610060575f3560e01c80631a8f985b1461006457806337f7e1dd14610079578063596b772f146100a45780638da5cb5b146100bb57806392a27f49146100e5578063f2fde38b14610117575b5f5ffd5b6100776100723660046103c7565b61012a565b005b61008c61008736600461043e565b61025c565b60405161009b93929190610455565b60405180910390f35b6100ad60045481565b60405190815260200161009b565b5f546100cd906001600160a01b031681565b6040516001600160a01b03909116815260200161009b565b6101076100f336600461043e565b5f9081526001602052604090205460ff1690565b604051901515815260200161009b565b61007761012536600461049a565b61031d565b5f546001600160a01b0316331461015c5760405162461bcd60e51b8152600401610153906104c7565b60405180910390fd5b5f8381526001602052604090205460ff16156101ca5760405162461bcd60e51b815260206004820152602760248201527f436572746966696361746552656769737472793a20616c7265616479207265676044820152661a5cdd195c995960ca1b6064820152608401610153565b5f838152600160208181526040808420805460ff19169093179092556002905290206101f78284836105a7565b505f838152600360205260408120429055600480549161021683610661565b9190505550827f794ecc27f97378e1a3ba9cd9675b0c7f75cb69c48dcd2f9e432789543d554cfe83834260405161024f93929190610685565b60405180910390a2505050565b5f8181526001602090815260408083205460029092528220805460ff9092169260609290919061028b90610523565b80601f01602080910402602001604051908101604052809291908181526020018280546102b790610523565b80156103025780601f106102d957610100808354040283529160200191610302565b820191905f5260205f20905b8154815290600101906020018083116102e557829003601f168201915b5050505f968752505060036020526040909420549294915050565b5f546001600160a01b031633146103465760405162461bcd60e51b8152600401610153906104c7565b6001600160a01b0381166103a65760405162461bcd60e51b815260206004820152602160248201527f436572746966696361746552656769737472793a207a65726f206164647265736044820152607360f81b6064820152608401610153565b5f80546001600160a01b0319166001600160a01b0392909216919091179055565b5f5f5f604084860312156103d9575f5ffd5b83359250602084013567ffffffffffffffff8111156103f6575f5ffd5b8401601f81018613610406575f5ffd5b803567ffffffffffffffff81111561041c575f5ffd5b86602082840101111561042d575f5ffd5b939660209190910195509293505050565b5f6020828403121561044e575f5ffd5b5035919050565b8315158152606060208201525f83518060608401528060208601608085015e5f608082850101526080601f19601f830116840101915050826040830152949350505050565b5f602082840312156104aa575f5ffd5b81356001600160a01b03811681146104c0575f5ffd5b9392505050565b60208082526028908201527f436572746966696361746552656769737472793a2063616c6c6572206973206e60408201526737ba1037bbb732b960c11b606082015260800190565b634e487b7160e01b5f52604160045260245ffd5b600181811c9082168061053757607f821691505b60208210810361055557634e487b7160e01b5f52602260045260245ffd5b50919050565b601f8211156105a257805f5260205f20601f840160051c810160208510156105805750805b601f840160051c820191505b8181101561059f575f815560010161058c565b50505b505050565b67ffffffffffffffff8311156105bf576105bf61050f565b6105d3836105cd8354610523565b8361055b565b5f601f841160018114610604575f85156105ed5750838201355b5f19600387901b1c1916600186901b17835561059f565b5f83815260208120601f198716915b828110156106335786850135825560209485019460019092019101610613565b508682101561064f575f1960f88860031b161c19848701351681555b505060018560011b0183555050505050565b5f6001820161067e57634e487b7160e01b5f52601160045260245ffd5b5060010190565b60408152826040820152828460608301375f606084830101525f6060601f19601f860116830101905082602083015294935050505056fea26469706673582212209831b3fd1e51b627a31a3d55e297a47f8523d70c24b51ad24f8435abc6ed44ef64736f6c634300081c0033",
  "linkReferences": {},
  "deployedLinkReferences": {},
  "immutableReferences": {},
  "inputSourceName": "project/contracts/CertificateRegistry.sol",
  "buildInfoId": "solc-0_8_28-de0778438a7a1d32ecf6cd86c8dea5ee2b491f5e"
}